:100000000C941A010C9442010C9442010C9442018C
:100010000C9442010C9442010C9442010C94420154
:100020000C9442010C9442010C9442010C94420144
:100030000C9442010C9442010C9442010C94420134
:100040000C94FD0D0C9442010C946D0E0C94470E13
:100050000C9442010C9442010C9442010C94420114
:100060000C949F0E0C9442014E414E494E495459F6
:10007000494E46CDCCCC3D0AD7233C17B7D1387773
:10008000CC2B329595E6241FB14F0A000020410089
:1000900000C84200401C4620BCBE4CCA1B0E5AAED3
:1000A000C59D74656E636F64657273636F756E74FE
:1000B00000636F6E73006675656C0074656D70002B
:1000C000626F6F73740073706565646F0074616351
:1000D00068006D637574797065006C6973740000F5
:1000E00000000800020100000304070000000000F7
:1000F00000000000D57FAAFE2B815429FC5683D72F
:1001000002A87D52872DF8AC79D3067BAE04D18549
:1001100050FA2FA471DB0E5A8F25F08D58F22773F9
:10012000A60CD9F623895C08DD77A2DF0AA0752129
:10013000F45E8B9D48E23763B61CC9B461CB1E4A9E
:100140009F35E0CF1AB06531E44E9BE633994C18E9
:10015000CD67B239EC4693C712B86D10C56FBAEED1
:100160003B91446BBE14C19540EA3F42973DE8BCC9
:1001700069C316EF3A904511C46EBBC613B96C380B
:10018000ED4792BD68C21743963CE99441EB3E6A45
:10019000BF15C04B9E34E1B560CA1F62B71DC89C35
:1001A00049E33619CC66B3E732984D30E54F9ACE25
:1001B0001BB16472A70DD88C59F3265B8E24F1A570
:1001C00070DA0F20F55F8ADE0BA17409DC76A3F7E5
:1001D00022885DD603A97C28FD5782FF2A8055011D
:1001E000D47EAB8451FB2E7AAF05D0AD78D20753C5
:1001F000862CF900000000250028002B00000000DC
:1002000000240027002A0004040404040404040257
:1002100002020202020303030303030102040810A3
:100220002040800102040810200102040810200070
:10023000DE10FE1E11241FBECFEFD8E0DEBFCDBF03
:1002400012E0A0E0B1E0E6E9FBE402C005900D9207
:10025000A43CB107D9F725E0A4ECB2E001C01D929F
:10026000A63CB207E1F711E0C9E1D1E004C0219753
:10027000FE010E94B623C831D107C9F70E94B5110B
:100280000C94BE250C940000CF92DF92EF92FF9267
:100290006B017C01E0910004F091010482E0808315
:1002A000C11481EED806E104F104A1F060E079E028
:1002B0008DE390E0A70196010E946B222150310945
:1002C000410951095695479537952795211580E1A4
:1002D0003807A8F0E0910004F0910104108260E872
:1002E00074E88EE190E0A70196010E946B222150F4
:1002F0003109410951095695479537952795E09160
:10030000FC03F091FD033083E091FE03F091FF03C5
:10031000208310920804E0910404F091050486E023
:100320008083E0910204F0910304808180618083E6
:10033000E0910204F0910304808188608083E09161
:100340000204F0910304808180688083E0910204BC
:10035000F091030480818F7D8083FF90EF90DF9088
:10036000CF90089590E0FC01E55EFD4F2491895FF8
:100370009D4FFC018491882399F090E0880F991F8C
:10038000FC01E350FE4FA591B491FC01ED50FE4FEE
:10039000859194918FB7F894EC91E22BEC938FBFF9
:1003A0000895CF93DF9380919A0490919B048233B8
:1003B00091052CF582E390E090939B0480939A043E
:1003C00080910B0590910C05C0919A04D0919B04EB
:1003D0009C01225031092230310510F00597A9F413
:1003E00088E88093C903C837D1055CF181E090E0CB
:1003F0009093540580935305DF91CF9108958338EE
:100400009105F4F282E890E0D7CF9E010D2E000C0A
:10041000440B550BCB35D105CCF42253310941099E
:100420005109A4E2B0E00E94292228E230E040E035
:1004300050E00E940A222C593F4F4F4F5F4F2093AC
:10044000C9031092540510925305D6CF2A5531098D
:1004500041095109A8E1B0E00E94292228E230E0D8
:1004600040E050E00E940A2228573F4F4F4F5F4F15
:100470002093C903B8CF80919A0490919B048E3643
:10048000910544F480919C0490919D0487389105D6
:100490000CF4A5C081E090E090934A058093490553
:1004A00080913105909132058130910539F020918C
:1004B000490530914A052130310531F421E030E021
:1004C0003093480520934705892B51F480914905C5
:1004D00090914A05892B21F4109248051092470506
:1004E00080913D0590913E058B3591050CF07CC0C7
:1004F00081E090E090935605809355058091230507
:1005000090912405880F991F209121053091220593
:10051000820F931F20912D0530912E05220F331F3E
:10052000220F331F820F931F20912B0530912C0532
:1005300053E0220F331F5A95E1F7820F931F20914A
:10054000290530912A0564E0220F331F6A95E1F7EF
:10055000820F931F209127053091280575E0220F07
:10056000331F7A95E1F7820F931F880F8093AC03B6
:100570008091370590913805880F991F880F991F32
:100580002091390530913A05820F931F880F991FEA
:1005900020912F0530913005820F931F880F991FEE
:1005A000880F991F2091350530913605820F931FD2
:1005B000880F880F20915505922F990F920F890F60
:1005C0008093A80380914705880F80939C038091B6
:1005D00033058295880F807E80939B030895109247
:1005E0004A05109249055CCF1092560510925505A8
:1005F00085CF9091B6059032A1F02091B505290FD5
:100600003327331F2032310510F0205231093327B0
:10061000F901E558FA4F828F9F5F9093B60581E00C
:10062000089580E008952091B6052223C1F0E0915D
:10063000B505F0E0E558FA4F228DFC01208380914A
:10064000B5058F5F8093B5059091B6059150909355
:10065000B605803211F41092B50581E0089580E06E
:10066000089590E0FC01E152FF4F2491FC01E55E0A
:10067000FD4F3491FC01E95FFD4FE491EE23C9F099
:10068000222339F0233001F1A8F4213019F122306E
:1006900029F1F0E0EE0FFF1FED50FE4FA591B49150
:1006A0008FB7F894EC91611126C030953E233C93AE
:1006B0008FBF08952730A9F02830C9F0243049F7BA
:1006C000809180008F7D03C0809180008F77809320
:1006D0008000DFCF84B58F7784BDDBCF84B58F7D7D
:1006E000FBCF8091B0008F778093B000D2CF809104
:1006F000B0008F7DF9CF3E2BDACF61E08091740599
:100700000C9431033FB7F894809185039091860350
:10071000A0918703B091880326B5A89B05C02F3F01
:1007200019F00196A11DB11D3FBFBA2FA92F982F17
:100730008827BC01CD01620F711D811D911D42E012
:10074000660F771F881F991F4A95D1F708958F92DA
:100750009F92AF92BF92CF92DF92EF92FF924B01A6
:100760005C010E9482036B017C010E9482036C1970
:100770007D098E099F09683E734081059105A8F3A4
:1007800021E0821A9108A108B10888EEC80E83E022
:10079000D81EE11CF11C81149104A104B10429F7B5
:1007A000FF90EF90DF90CF90BF90AF909F908F9091
:1007B00008952FB7F894609181037091820380911E
:1007C0008303909184032FBF0895CF92DF92EF921D
:1007D000FF920F931F9380E88093B8038091650583
:1007E000811105C01092B80381E0809365050E94D5
:1007F000D9030091F3041091F4042091F504309191
:10080000F6046B017C01C01AD10AE20AF30A9701CF
:1008100086010A3011052105310550F06093F3047B
:100820007093F4048093F5049093F6041092650598
:100830000E94D9030091EF041091F0042091F1047B
:100840003091F2046B017C01C01AD10AE20AF30A6A
:10085000970186010C3D15402105310588F0609314
:10086000EF047093F0048093F1049093F20480916C
:1008700061059091620501969093620580936105F0
:1008800080916105909162050C9724F010926205A9
:100890001092610580910B0590910C0581309105B6
:1008A00019F08430910571F5E0916105F0916205D0
:1008B000EC30F10538F5E15AFB4F0C94B6236B048C
:1008C000A904B604C904D604E704F40401050E051E
:1008D0001B05280535052091980430919904203195
:1008E000310584F520EE30E03093640520936305F4
:1008F00020916605309167052F5F3F4F3093670564
:10090000209366059C01225031092230310510F0F8
:10091000059769F48091430590914405019709F08A
:10092000BAC08EE790E09093640580936305809150
:1009300063058093B9031F910F91FF90EF90DF90B3
:10094000CF90089521E030E0309362052093610557
:10095000D9CF20919A0430919B042E3631051CF09A
:1009600021E030E0C1CF22E030E0EECF20919C04C6
:1009700030919D04223831054CF0225831092A303B
:10098000310508F06CC024E030E0AECF23E030E069
:10099000DBCF20913B0530913C052130310519F426
:1009A0002DE030E0A1CF24E030E0CECF20913D0516
:1009B00030913E05293731053CF42E3231050CF4D7
:1009C00041C02DE630E090CF25E030E0BDCF209152
:1009D0003F05309140052130310519F42DE730E015
:1009E00083CF26E030E0B0CF209141053091420521
:1009F0002130310519F42AE830E076CF27E030E0E5
:100A0000A3CF20915105309152052130310519F4C1
:100A10002FE630E069CF28E030E096CF2091310515
:100A2000309132052130310519F420EF30E05CCFF0
:100A300029E030E089CF20915305309154052130D1
:100A4000310519F425E630E04FCF2AE030E07CCFC5
:100A500020914505309146052130310519F425E0F6
:100A600030E042CF2BE030E06FCF2091660530912F
:100A70006705232B59F420E430E03093640520937C
:100A8000630510926205109261053CCF10926705D4
:100A900010926605F6CF80E490E045CF0895AF92BE
:100AA000BF92CF92DF92EF92FF920F931F93CF935B
:100AB000DF936C017B018B01040F151FEB015E01BD
:100AC000AE18BF08C017D10759F06991D601ED9152
:100AD000FC910190F081E02DC6010995892B79F7F1
:100AE000C501DF91CF911F910F91FF90EF90DF90A3
:100AF000CF90BF90AF900895FC01538D448D252F6A
:100B000030E0842F90E0821B930B541710F0CF96A7
:100B1000089501970895FC01918D828D981761F0D9
:100B2000A28DAE0FBF2FB11D5D968C91928D9F5FF0
:100B30009F73928F90E008958FEF9FEF0895FC01CF
:100B4000918D828D981731F0828DE80FF11D858D82
:100B500090E008958FEF9FEF0895FC01918D228D15
:100B6000892F90E0805C9F4F821B91098F7399279A
:100B7000089580EF93E00E94AD0521E0892B09F4F0
:100B800020E0822F089580E090E0892B29F00E94D8
:100B9000B90581110C9400000895FC01A48DA80FE3
:100BA000B92FB11DA35ABF4F2C91848D90E00196AF
:100BB0008F739927848FA689B7892C93A089B189CF
:100BC0008C91837080648C93938D848D981306C070
:100BD0000288F389E02D80818F7D80830895EF92D4
:100BE000FF920F931F93CF93DF93EC0181E0888FE7
:100BF0009B8D8C8D98131AC0E889F989808185FFB7
:100C000015C09FB7F894EE89FF896083E889F98958
:100C100080818370806480839FBF81E090E0DF915A
:100C2000CF911F910F91FF90EF900895F62E0B8DAD
:100C300010E00F5F1F4F0F731127E02E8C8D8E1168
:100C40000CC00FB607FCFACFE889F989808185FFCF
:100C5000F5CFCE010E94CD05F1CFEB8DEC0FFD2F2E
:100C6000F11DE35AFF4FF0829FB7F8940B8FEA898A
:100C7000FB8980818062CFCF682F80EF93E00C9456
:100C8000EF05CF93DF93EC01888D8823B9F0AA8913
:100C9000BB89E889F9898C9185FD03C0808186FD37
:100CA0000DC00FB607FCF7CF8C9185FFF2CF808186
:100CB00085FFEDCFCE010E94CD05E9CFDF91CF9129
:100CC00008958EBD00000DB407FEFDCF8EB50895CA
:100CD0002091F002260F3327331F21323105ECF427
:100CE00020911403FC0190E080E0243069F082E060
:100CF0000895A091F0022191AC0140535D4FA40FE3
:100D0000B52FB11D2C930196861798F38091F002B0
:100D1000680F6093F00280E0089581E008950895DF
:100D20008FEF9FEF08958FEF9FEF08958091C90295
:100D300090E09195819591090895CF93DF93CB0130
:100D4000EA01642F0E946806CE01DF91CF910895D9
:100D5000CF93DF931F92CDB7DEB7698361E0CE01F9
:100D600001960E94680681E090E00F90DF91CF919C
:100D7000089590E080E00895CF93CFB7F8948091E4
:100D8000C802811124C0E1E1F2E08491E5E2F2E0E1
:100D90009491E82FF0E0EE0FFF1FE350FE4FA59176
:100DA000B491EC91E92321F461E08AE00E943103DF
:100DB0008AE00E94B2018CB580618CBD8CB58064E4
:100DC0008CBD8DE00E94B2018BE00E94B201809147
:100DD000C8028F5F8093C802CFBFCF910895CF9391
:100DE000C82F88E090E00E943C066C2F80EF93E0D3
:100DF0000E94EF0580EF93E0CF910C944106CF92D3
:100E0000DF92EF92FF92CF93DF93EC010E94D90320
:100E10006B017C01E881F981309711F081E009953F
:100E200080EF93E00E948B0597FF0DC00E94D903CD
:100E30006C197D098E099F0964367105810591053C
:100E400048F38FEF9FEFDF91CF91FF90EF90DF900E
:100E5000CF900895CF92DF92EF92FF920F931F935E
:100E6000CF93DF9380EF93E00E94AD05181619062B
:100E70000CF09BC087EB95E00E94FF06019791F76D
:100E800087EB95E00E94FF06019709F08EC087EB83
:100E900095E00E94FF068C01C1E097FD2AC087EB18
:100EA00095E00E94FF067C010197809708F061C0E1
:100EB0008BE7C82E85E0D82E87EB95E00E94FF06D1
:100EC000F60181936F01C0E097FDC5E0C6018B5725
:100ED00095408E159F055CF0C1110BC087EB95E026
:100EE0000E94FF069C0197FF46C0C3E002C0CC23CE
:100EF00019F3D091930584E090E00E943C066D2F99
:100F000080EF93E00E94EF056C2F2AC0809193053B
:100F100090919405C4E0E217130659F780389105C3
:100F20001CF090E080E001C001960817190719F045
:100F30000F3F110581F4CBE7D5E0CE018B579540EB
:100F40008E159F0524F489910E94F902F6CF109323
:100F500094050093930583E090E00E943C06602F87
:100F600080EF93E00E94EF0580EF93E00E9441063E
:100F700079CFC2E0BECFF801ED50FF4FE491C70139
:100F80008E27FC01ED50FF4FE491ABE7B5E0CD01BA
:100F90008B5795408E159F050CF0B8CF9D91E92792
:100FA000F0E0ED50FF4FE491F2CFDF91CF911F9130
:100FB0000F91FF90EF90DF90CF900895CF92DF9246
:100FC000EF92FF92CF93DF931F92CDB7DEB70E94CF
:100FD000D9036B017C01E091B705F091B80530971A
:100FE00011F080E009958091B605882379F0198287
:100FF000CE0101960E941303898190E00F90DF914A
:10100000CF91FF90EF90DF90CF9008950E942A0734
:101010000E94D9036C197D098E099F0960397140BE
:1010200081059105C0F28091B6058111D4CF8FEF73
:101030009FEFE4CF80E00E94EF0680EF93E00C94F6
:1010400041060F931F93009175051091760520912D
:1010500077053091780540E052E16AE770E080E082
:10106000041715072607370740F4769567955795B7
:1010700047958F5F8630A1F787E0982F906A969505
:10108000809581709CBD8DBD60E0809174051F913D
:101090000F910C943103CF93C82F0E94210883E055
:1010A0000E9461068C2F0E94610680E00E9461060A
:1010B000C82F0E947D038C2FCF910895FF920F932C
:1010C0001F93CF93DF93C82FF62E172F042F0E9464
:1010D000210882E00E9461068C2F0E946106CF2DBC
:1010E000D12F0C0F1D2F111DC017D10721F0899191
:1010F0000E946106F9CFDF91CF911F910F91FF9070
:101100000C947D031F93CF93DF93182FD62FC42FFA
:101110000E94210885E00E946106812F0E946106DD
:101120008D2F0E9461068C2F0E946106DF91CF9166
:101130001F910C947D03CF92DF92EF92FF92CF9399
:10114000C82F482F68EE8FE00E9482080E94D903C2
:101150006B017C012AE0C20ED11CE11CF11C0E9433
:10116000D9036C157D058E059F0580F48EE00E94E5
:101170004B08807EC813F3CF81E091E0892790E08F
:10118000CF91FF90EF90DF90CF90089580E0F5CF62
:10119000CF93DF93D82FC62F0E94210882E00E94B0
:1011A00061068D2F0E9461068C2F0E946106DF91DF
:1011B000CF910C947D03FF920F931F93CF93DF93F6
:1011C000C82FF62E172F042F0E94210883E00E94BB
:1011D00061068C2F0E946106CF2DD12F0C0F1D2F81
:1011E000111DC017D10729F080E00E946106899384
:1011F000F8CFDF91CF911F910F91FF900C947D0359
:101200009F92AF92BF92CF92DF92EF92FF920F9395
:101210001F93CF93DF9300D000D01F92CDB7DEB7DE
:101220005B018C01000F111F000F111FF801E85E18
:10123000FE4F45E0BE016F5F7F4F81810E94DB085A
:101240008A81C98098E0C99E60011124282F30E06E
:1012500055E0359527955A95E1F7C20ED31E0D2C12
:10126000000CEE08FF0883FF20C092E0CC0CDD1CD0
:10127000EE1CFF1C9A95D1F78370C80ED11CE11C9F
:10128000F11CFE2CED2CDC2CCC248B81C80ED11C47
:10129000E11CF11CFE2CED2CDC2CCC248C81C80E26
:1012A000D11CE11CF11C6894F7F88D818F70982E89
:1012B000E8E081E090E0E91510F1F801E85EFE4F0A
:1012C00080810E944B0883FF02C06894F6F8F50104
:1012D000C082D182E282F3829482B501685F7F4F3F
:1012E000085E1E4F492DF80182810E94DB0840E014
:1012F000F80163818CE20E94820890E080E00F9008
:101300000F900F900F900F90DF91CF911F910F9141
:10131000FF90EF90DF90CF90BF90AF909F90089597
:101320004F925F926F927F928F929F92AF92BF92F5
:10133000CF92DF92EF92FF920F931F93CF93DF93A1
:10134000CDB7DEB763970FB6F894DEBF0FBECDBF43
:10135000FC012481293008F08DC05C0186E0E6E0C4
:10136000F1E0DE011E9601900D928A95E1F73E01B3
:10137000FEE06F0E711C8E010C5E1F4FF301C190D9
:10138000D1903F017601EE0CFF1CF701EC0DFD1D25
:10139000E05EFE4F8080882D0E944B0883FD96C042
:1013A000F5019480F8E0F91508F464C0F5010081B6
:1013B000118122813381B901A801442777FD43952A
:1013C000552766277727D901C80188279927AA2793
:1013D000B07444244A94542C642C7FE1772E41113C
:1013E00006C044244A9467E0562E612C712C0421D7
:1013F000152126213721442309F43FC00C831B8388
:10140000890122273327402F440F440F440F407E89
:10141000502F53705860452B4A8355E01695079519
:101420005A95E1F70983892B8A2B8B2BA1F1892D02
:1014300080648D83492D50E0B501685F7F4FCE01F8
:1014400006960E94A52545E0490DF701EC0DFD1D0E
:10145000E05EFE4FBE016F5F7F4F81810E945E089C
:1014600048E068E0882D0E948208882D0E944B0881
:10147000807799F084E090E012C0A80123E05695AF
:1014800047952A95E1F749830295000F007E0A836C
:101490001C821B82C8CF892DCCCF90E080E0639660
:1014A0000FB6F894DEBF0FBECDBFDF91CF911F9175
:1014B0000F91FF90EF90DF90CF90BF90AF909F90F3
:1014C0008F907F906F905F904F9008956016710697
:1014D00009F054CF82E090E0E2CF80EC93E00E94EC
:1014E000900980E793E00E94900980EE93E00E94CB
:1014F000900980EA93E00E94900980E993E00E94BD
:10150000900980ED93E00E94900980E593E00E94AD
:10151000900980E693E00E94900980EB93E00E949E
:10152000900980E493E00C9490090F931F93CF935C
:10153000DF93EC01FC0101900020E9F731978F0166
:10154000081B190B86E090E00E943C06C8010E942F
:101550003C06FE0101900020E9F73197AF014C1BDA
:101560005D0BBE0180EF93E00E944F0580E290E0AA
:101570000E943C0680EF93E0DF91CF911F910F9185
:101580000C944106FC0180819181009711F00C942C
:101590005F240895FC0124813581232B39F421E057
:1015A000FB018081882349F020E007C08081918180
:1015B0000E94AE2521E0892BB9F7822F08958F92E2
:1015C0009F92AF92BF92CF92DF92EF92FF926BE326
:1015D00071E086EB94E00E94CA0A882309F452C0A5
:1015E00062E471E08CEB94E00E94CA0A882309F45B
:1015F00041C080908E0490908F04A0909004B09091
:101600009104C501B4010E947B236B017093060510
:1016100060930505DB012AEB30E00E94BC2328EE35
:1016200033E040E050E00E940A222093E803B60134
:10163000DD0C880B990B0E94EA209B01AC01C501CF
:10164000B4010E949C2220E030E04AE754E40E946A
:1016500049210E947B239B01AC01ACEFB1E00E94C9
:10166000292223E630E040E050E00E940A22209345
:10167000E90361C067E671E08CEB94E00E94CA0A5E
:10168000811146C06DE871E086EB94E00E94CA0AC1
:10169000811119C060918E0470918F048091900423
:1016A000909191040E947B239B01AC01A9EDB0E0D5
:1016B0000E94292228EE33E040E050E00E940A22F6
:1016C0002093E80338C062E471E08CEB94E00E9460
:1016D000CA0A8823A9F080908E0490908F04A0906D
:1016E0009004B0909104C501B4010E947B236B016A
:1016F0007093060560930505DB0129ED30E08DCF81
:1017000067E671E08CEB94E00E94CA0A882311F22C
:1017100080919204909193049C0145E03595279522
:101720004A95E1F72093E80353E0880F991F5A95F3
:10173000E1F78093E903FF90EF90DF90CF90BF90A7
:10174000AF909F908F9008950F931F930E94D9039D
:1017500000916C0510916D0520916E0530916F051B
:10176000601B710B820B930B00917005109171053A
:10177000209172053091730506171707280739075E
:1017800008F50E94D90360936C0570936D058093F2
:101790006E0590936F050E943B020E946D0A809136
:1017A000680590916905A0916A05B0916B0588382C
:1017B0009341A105B10530F00E94DF0A1F910F91FE
:1017C0000C946D0A1F910F9108958F929F92AF9282
:1017D000BF92CF92DF92EF92FF92C0909404D0908C
:1017E0009504E0909604F090970420E030E040E803
:1017F0005FE3C701B6010E94B12387FD6CC065E9B4
:1018000071E08EEC94E00E94CA0A882351F0809126
:101810000B0590910C0527ED33EA40ED5FE301974E
:1018200021F02AE037ED43E250E4C701B6010E94FF
:1018300009236093FD047093FE048093FF0490934A
:1018400000058090FD049090FE04A090FF04B090ED
:101850000005C501B4010E947B236B017093FC0459
:101860006093FB04072E000C880B990B0E94EA2062
:101870009B01AC01C501B4010E949C2220E030E034
:1018800048EC52E40E9449216093010570930205DF
:1018900080930305909304050E947B239B01AC0178
:1018A000AEEFB0E00E94292223E630E040E050E0B5
:1018B0000E940A222093F9043093FA04C092EA03AA
:1018C0002093EB03FF90EF90DF90CF90BF90AF900D
:1018D0009F908F9008951092FC041092FB04109238
:1018E000FA041092F9041092EA031092EB03EACF83
:1018F00080919804909199044097A4F581E090E03C
:101900009093300580932F056AEB71E08AEA94E0AA
:101910000E94CA0A882341F06EEB71E08AEA94E0E3
:101920000E94CA0A811119C080910B0590910C0583
:101930000297029740F062EC71E08AEA94E00E941C
:10194000CA0A882351F084E690E09093990480932A
:1019500098041092300510922F058091980480937E
:10196000DB0308951092300510922F05CDCFCF9351
:10197000DF936AEB71E08AEA94E00E94CA0A81115F
:1019800010C06EEB71E08AEA94E00E94CA0A8111ED
:1019900008C063ED71E08AEA94E00E94CA0A8823D5
:1019A00061F080919C0490919D04892B31F488E72B
:1019B00090E090939D0480939C04C0919C04D091EE
:1019C0009D0480910B0590910C050297029720F4DD
:1019D00089E98093DA0320C09E010D2E000C440B90
:1019E000550BC937D1054CF582E6CE34D1058CF3C1
:1019F0002E54310941095109A9E3B0E00E9429227E
:101A00002AE230E040E050E00E940A222E593F4F87
:101A10004F4F5F4F2093DA03CC38D1054CF081E073
:101A200090E09093540580935305DF91CF910895F2
:101A30001092540510925305F8CF285731094109E7
:101A40005109ACE3B0E00E9429222EE130E040E0F1
:101A500050E00E940A2225563F4F4F4F5F4F209380
:101A6000DA0387EDC739D1050CF0B3CFD5CF0F938B
:101A70001F93CF93DF93EC0188819981009759F0F0
:101A80002A813B812617370730F081E0DF91CF9123
:101A90001F910F9108958B016F5F7F4F0E94E82483
:101AA000009759F0998388831B830A832C813D8199
:101AB000232B59F7FC011082E8CF80E0E7CFCF93CA
:101AC000DF93EC01198218821B821A821D821C820C
:101AD00070E060E00E94370D2881398181110FC0CC
:101AE0002115310519F0C9010E945F24198218825D
:101AF0001D821C821B821A82DF91CF9108951D8264
:101B00001C8264E972E0C901DF91CF910C94B72582
:101B10001F93CF93DF9385ED8093BC008091CC021F
:101B20009091CD02A091CE02B091CF020796A11D57
:101B3000B11D23E0B695A795979587952A95D1F77E
:101B40002091BC0024FD03C01092140352C04091A8
:101B5000CC025091CD026091CE027091CF02452B04
:101B6000462B472B69F30097A105B10541F02AE206
:101B70002A95F1F700C00197A109B109E1CF809141
:101B8000CB02C1E0C093CA02882399F1D091B8007A
:101B90001091BA008091BC008A7B8093BC0060E009
:101BA00082E10E94310360E083E10E9431031092E0
:101BB0001403C09316031092150361E082E10E94A2
:101BC000310361E083E10E9431038091B9008E7F8F
:101BD0008093B9008091B9008D7F8093B90088E42B
:101BE0008093B80085E48093BC001093BA00D09332
:101BF000B800DF91CF911F9108951F920F920FB6F9
:101C00000F9211242F933F938F939F93AF93BF9382
:101C10008091810390918203A0918303B09184030A
:101C20003091800323E0230F2D3758F50196A11D35
:101C3000B11D209380038093810390938203A0932E
:101C40008303B09384038091850390918603A091D0
:101C50008703B09188030196A11DB11D8093850370
:101C600090938603A0938703B0938803BF91AF91AD
:101C70009F918F913F912F910F900FBE0F901F90CA
:101C8000189526E8230F0296A11DB11DD2CF1F92F1
:101C90000F920FB60F9211242F933F934F935F93A0
:101CA0006F937F938F939F93AF93BF93EF93FF9324
:101CB00080EF93E00E94CD05FF91EF91BF91AF912E
:101CC0009F918F917F916F915F914F913F912F9154
:101CD0000F900FBE0F901F9018951F920F920FB686
:101CE0000F9211242F938F939F93EF93FF93E09183
:101CF0000004F09101048081E0910604F091070452
:101D000082FD1BC09081809109048F5F8F732091A9
:101D10000A04821741F0E0910904F0E0E051FC4F21
:101D2000958F80930904FF91EF919F918F912F914F
:101D30000F900FBE0F901F9018958081F4CF1F92C7
:101D40000F920FB60F9211242F933F934F935F93EF
:101D50006F937F938F939F93AF93BF93EF93FF9373
:101D60008091B900887F803609F44AC0F0F5883246
:101D700009F4A5C018F5803109F499C0B8F4882396
:101D800009F4F5C0883009F492C0FF91EF91BF913A
:101D9000AF919F918F917F916F915F914F913F9103
:101DA0002F910F900FBE0F901F901895883109F456
:101DB00086C0803251F78093130314C0803409F435
:101DC0009BC040F48033B9F38833F9F68093130352
:101DD00085ECAEC0803509F483C0883509F494C021
:101DE000883499F60E94880DD0CF883909F48AC0CA
:101DF00038F5883729F050F4883611F0803729F605
:101E000083E0809314031092120355C0883809F4BC
:101E100079C0803919F0803809F0B7CF809112036A
:101E2000803208F06FC0E091120381E08E0F809342
:101E300012038091BB00F0E0EE50FD4F80833BC069
:101E4000803B39F0D0F4803A09F477C0883A09F041
:101E50009CCF84E0809314031092F1021092F00260
:101E6000F0E0E0E009958091F00281110FC081E07F
:101E70008093F0021092D00209C0803C09F4A8CFF0
:101E8000883C09F4A5CF883B09F07FCFE091F102AF
:101E900081E08E0F8093F102F0E0E053FD4F8081EE
:101EA0008093BB009091F1028091F00229C0809153
:101EB00039038093BB0085EC8093BC0066CF909182
:101EC000380380913703981758F5E091380381E083
:101ED0008E0F80933803F0E0E95EFC4F8081E9CFFC
:101EE000E091380381E08E0F809338038091BB002E
:101EF000F0E0E95EFC4F80839091380380913703D6
:101F00009817C8F285E8D8CFE091380381E08E0FAA
:101F1000809338038091BB00F0E0E95EFC4F808342
:101F20008091160381115ECF81E08093150384EACE
:101F30008093BC001092140328CF85EC8093BC00E2
:101F40001092140380911203803230F4E091120356
:101F5000F0E0EE50FD4F10826091120370E082EFCE
:101F600092E0F0E0E0E00995109212030ECF10929B
:101F7000130338CF0F931F93CF93DF93EC01FC0132
:101F800001900020E9F731978F01081B190B86E0BB
:101F900090E00E943C06C80101960E943C06FE01AA
:101FA00001900020E9F73197AF014C1B5D0BBE019A
:101FB00080EF93E00E944F058AE090E00E943C068B
:101FC00080E290E00E943C0680EF93E0DF91CF91A9
:101FD0001F910F910C9441060F931F93CF93DF93A2
:101FE0008C01EB01FC01808191810097E1F0688117
:101FF000798161157105A9F0428153812C813D8160
:102000004217530770F00E94B7258C819D81F8011B
:10201000958384831D821C82DF91CF911F910F9144
:1020200008950E945F2488819981F80191838083BB
:102030008A819B81938382838C819D819583848314
:10204000198218821B821A82E5CFFC01808191815E
:10205000009711F00C94261F60E070E0CB0108950A
:10206000FC0124813581FB0144815581241735070A
:10207000E1F4FC0180819181FB0160817181009715
:10208000D1F061157105A1F4232BC1F0FC01808111
:1020900090E008C0232B91F0FB01808190E09195A6
:1020A0008195910921E0892B09F020E0822F089584
:1020B0000E94AE25F7CF6115710561F721E0F6CFDB
:1020C000CF92DF92EF92FF920F931F93CF93DF9304
:1020D00000D0CDB7DEB78C01C62E0E945F0D0E94E6
:1020E000DE070C2C000CDD0897FD23C08C159D0528
:1020F00001F189831A82F801E480F580FFEFEF1A7D
:10210000FF0AB701C8010E94370D882379F0F80152
:102110002081318184819581BE016F5F7F4F820F65
:10212000931F0E94B725F801F582E4820E94DE0722
:10213000DBCFC8010F900F90DF91CF911F910F91CE
:10214000FF90EF90DF90CF900895EF92FF920F9362
:102150001F93CF93DF93EC018B01198218821B82AE
:102160001A821D821C82CB010E94541F7C01BC017B
:10217000CE010E94370D28813981811113C02115AC
:10218000310519F0C9010E945F24198218821D824D
:102190001C821B821A82DF91CF911F910F91FF90B9
:1021A000EF900895FD82EC82B801C901DF91CF91D3
:1021B0001F910F91FF90EF900C944D1FCF93DF93E1
:1021C000E0EFF3E01382128288EE93E0A0E0B0E04B
:1021D00084839583A683B7838DE291E09183808386
:1021E00085EC90E09587848784EC90E097878687DC
:1021F00080EC90E0918B808B81EC90E0938B828BD4
:1022000082EC90E0958B848B86EC90E0978B868BAC
:10221000118E128E138E148EEBE7F5E08FEF90E0A7
:10222000918F808F12AE13AE15AE14AEC4E7D5E019
:102230008DE894E09E838D830E94BC068AE08883AB
:1022400080E896E9A8E9B0E089839A83AB83BC83F0
:102250008AE00E94B20161E088810E943103ECE6CD
:10226000F5E010821182128213828AE090E0A0E0F1
:10227000B0E084839583A683B783EEE8F4E0138609
:10228000128615861486178616868AEA94E00E94BE
:102290005F0D80EB94E00E945F0D86EB94E00E945E
:1022A0005F0D8CEB94E00E945F0D82EC94E00E9445
:1022B0005F0D88EC94E00E945F0D8EEC94E00E942C
:1022C0005F0D84ED94E00E945F0D1092DA0410928D
:1022D000DB041092DC041092DD041092DE041092F4
:1022E000DF0480EE94E00E945F0D1092E6041092ED
:1022F000E7041092E8041092E9041092EA041092A4
:10230000EB041092EC041092ED041092EE04109283
:10231000EF041092F0041092F1041092F204109263
:10232000F3041092F4041092F5041092F604109243
:102330000C0510920B0584E690E090933E05809387
:102340003D0510926205109261058EED90E090932C
:1023500064058093630581E08093650510926705AD
:1023600010926605DF91CF910895CF93DF93CDB79B
:10237000DEB7E9970FB6F894DEBF0FBECDBF8E0172
:10238000085F1F4F087F789484B5826084BD84B550
:10239000816084BD85B5826085BD85B5816085BD60
:1023A00080916E00816080936E0010928100809118
:1023B00081008260809381008091810081608093A0
:1023C0008100809180008160809380008091B100C5
:1023D00084608093B1008091B00081608093B000F0
:1023E00080917A00846080937A0080917A00826084
:1023F00080937A0080917A00816080937A00809146
:102400007A00806880937A001092C10060E07BE4DB
:1024100080E090E00E9444018EE00E94B2018FE0D3
:102420000E94B20180E10E94B2010E94BC060E949B
:10243000210880EC0E9461060E947D036AE070E042
:1024400080E090E00E94A7037E0128E1E20EF11CEB
:102450008EE0D7011D928A95E9F74EE0B70180E33F
:102460000E945E084EE0B70180E40E945E084EE0E4
:10247000B70180E50E945E0860E080E60E94C8081F
:1024800060E080E70E94C80863EA8BE20E94C80807
:1024900044E067E680E60E94820841E067E680E764
:1024A0000E9482088CE0ECE0F1E0DE01969601905B
:1024B0000D928A95E1F75E01B6E2AB0EB11CD12C0C
:1024C000C12C78E0972EF501E190F1905F0180E852
:1024D0000E949B08892B79F4F2E0EF16F10409F4CD
:1024E00000C208F0B1C1E114F10409F4BBC1EA94DF
:1024F000EF2809F4FCC180E80E949B08892B09F0B1
:1025000009C261E08AE20E94C80861EB89E20E9488
:10251000C80865E888E20E94C808FF24F394F09296
:10252000DA0480E00E949B0886EF90E0A0E0B0E033
:102530008093C0039093C103A093C203B093C303DD
:1025400088E08093C4039EE89093C8031092C90367
:102550001092CA031092CB031092CC038093CD0348
:1025600093E69093CE0390E29093CF0346E350E03E
:1025700060E070E0409370035093710360937203C6
:10258000709373038093740310927803109279030D
:1025900096E090937A039FE290937B03F0927C0302
:1025A00090E890937D0310927E0310927F0346EB98
:1025B00050E060E070E04093E0035093E1036093EB
:1025C000E2037093E3038093E4031092E803109214
:1025D000E9031092EA031092EB031092EC032FEF41
:1025E0002093ED031092EE0320EA2093EF0348E2DC
:1025F00051E060E070E04093A0035093A10360932A
:10260000A2037093A3038093A4031092A8031092D3
:10261000A9031092AA031092AB031092AC0320936B
:10262000AD031092AE031092AF0348E651E060E0B4
:1026300070E04093900350939103609392037093E2
:10264000930380939403109298031092990310922D
:102650009A0310929B0310929C0310929D03109278
:102660009E0310929F0341E651E060E070E04093CA
:10267000D0035093D1036093D2037093D30337E018
:102680003093D4031092D8031092D9031092DA0336
:102690001092DB031092DC031092DD031092DE0334
:1026A00048E252E060E070E04093500350935103E1
:1026B0006093520370935303809354039093580391
:1026C0001092590390935A0390935B0348EA51E0A8
:1026D00060E070E040936003509361036093620395
:1026E00070936303809364031092680310926903EC
:1026F00010926A0310926B0310926C0310926D0398
:1027000020936E0310926F0341EA51E060E070E0A5
:102710004093B0035093B1036093B2037093B3033B
:102720008093B4031092B8038BE88093B90386ECCE
:102730008093BA031092BB031092BC031092BD03A6
:102740001092BE031092BF0386EF93E0A0E0B0E0CA
:102750008093400390934103A0934203B0934303BB
:102760003093440380EC80934D0384EA9BE0909384
:10277000B8058093B70550E5252E312C0E94D9036A
:10278000609368057093690580936A0590936B0563
:10279000C090EB04D090EC04E090ED04F090EE04D7
:1027A0009B01AC012C193D094E095F0969017A01B1
:1027B00038EBC3163BE0D306E104F10440F060932C
:1027C000EB047093EC048093ED049093EE04693E67
:1027D00043E074078105910508F09FC086E8809367
:1027E000C80310927C030E946D0AE091B705F09136
:1027F000B805309711F080E009958091B6058111F8
:1028000002C00E942A078091B605882309F4F2C409
:102810000E94DE07039709F0EDC40E94D9030E94CD
:10282000DE07813309F065C40E94DE076AE070E0CC
:1028300080E090E00E94A7038AE60E94EF0680EF06
:1028400093E00E944106D6C444E0E416F10409F482
:102850004CC008F448C085E0E816F10409F04BCEFE
:1028600088E101C080E091E0C916D10409F041C0BF
:102870001DAA1CAA9BAA1AAA44E0BE016E5C7F4F47
:102880000E945E08AFEFCA1ADA0AB6E0CB16D1048E
:1028900009F019CE1FAA1EAA81E090E099AF88AF77
:1028A0007E01E6E3EE0EF11C5E01FAE3AF0EB11C11
:1028B00068E0962ED701CD90DD907D0180E80E94E2
:1028C0009B08892B09F017CE1DAA1CAA9BAA1AAA3D
:1028D000C114D10499F0CA94CD2809F00CCE84E239
:1028E0000EC088E0C0CF80E1BECF84E1BCCF84E0E1
:1028F000BACF1AAA1BAA1DAA1CAABECF80E244E026
:10290000BE016E5C7F4F0E945E08AE14BF0409F4E6
:10291000F2CDD0CF1092DA0428CF6B017C0159EEB2
:10292000C51A53E0D50AE108F108A0EDCA16A7E0E0
:10293000DA06E104F10408F047C061E08EE00E948D
:10294000310361E08FE00E94310361E080E10E9489
:1029500031038EE88093C80381E080937C0320E0FC
:1029600030E04AE754E420938E0430938F04409380
:1029700090045093910480E090E0A2E8B3E4809347
:10298000940490939504A0939604B093970482E8DE
:1029900090E090939B0480939A0486E990E0909352
:1029A0009D0480939C0484E690E090939904809326
:1029B00098040E94DF0A0E94E50B0E94780C0E9496
:1029C000D1010E94B70C0FCF6B017C01A9EBCA1A91
:1029D000ABE0DA0AE108F108B8EECB16B3E0DB06AB
:1029E000E104F10470F560E08EE00E94310360E0E4
:1029F0008FE00E94310360E080E10E94310386E8AD
:102A00008093C80310927C0310928E0410928F045E
:102A100010929004109291041092940410929504D4
:102A2000109296041092970410929B0410929A04AC
:102A300010929D0410929C04109299041092980494
:102A4000B8CF615A7F4081099109683C71058105C1
:102A5000910538F48EE88093C80381E080937C036D
:102A6000C2CE0E946D0A0E94DF0A0E946D0A0E9477
:102A7000E50B0E946D0A0E943B020E946D0A0E94B3
:102A8000780C0E946D0A0E94D1010E943B020E94B4
:102A90006D0A0E94E5030E946D0A0E94B70C0E9415
:102AA0006D0AC090A004D090A104E090A204F09020
:102AB000A304EFEFCE16D104E104F10419F014F0F1
:102AC0000C94631DC701B6010E94EA2060930D05B6
:102AD00070930E0580930F059093100510922005BA
:102AE00010921F0510921E0510921D050C94161EC3
:102AF000C701B6010E949C220C94101E019711F090
:102B00000C94761E67ED71E080EB94E00E94CA0A97
:102B1000882361F030925805209257058091A604D1
:102B20009091A70490935A058093590563EB72E046
:102B300080EB94E00E94CA0A882311F40C94761E5C
:102B400030925805209257058091A6049091A704D1
:102B500090935A05809359050C94761E20E830E036
:102B6000309358052093570580915B0590915C0543
:102B7000EFCFE0905905F0905A054FEFE416F104BD
:102B800019F014F00C94D21ED0925E05C0925D052F
:102B90000C94881E10925205109251050C94A01EA0
:102BA0006EEB71E08AEA94E00E94CA0A811128C0A3
:102BB00062EC71E08AEA94E00E94CA0A811120C0A6
:102BC00061EF71E08AEA94E00E94CA0A811118C09C
:102BD0006AEB71E08AEA94E00E94CA0A811162C03D
:102BE00062E072E08AEA94E00E94CA0A882309F44B
:102BF00060C044E050E050930C0540930B0506C0C4
:102C0000E2E0F0E0F0930C05E0930B050E946D0A02
:102C100020E030E048EC52E4609194047091950417
:102C200080919604909197040E9449210E947B23F1
:102C300070935C0560935B050E946D0A0E94E5033A
:102C40000E946D0A0E943B020E94DF0A0E946D0AE8
:102C500068EE71E08AEA94E00E94CA0A811109C014
:102C60006DEE71E08AEA94E00E94CA0A882309F4B2
:102C700041C080919E0490919F04FC013396EB30FB
:102C8000F10508F060C0E95BF94E0C94B6236C16B0
:102C90006C166C167216741699169B169D169F1656
:102CA000A116A51623E030E030930C0520930B0508
:102CB000ADCF63ED71E08AEA94E00E94CA0A8823EE
:102CC00021F085E090E00C94CC1EA3E6B0E0B09338
:102CD0000C05A0930B059ACF80E18093AE03109270
:102CE000AF0308C080E2F9CF80E98093AE0380ECA7
:102CF0008093AF036AEB71E08AEA94E00E94CA0A0B
:102D0000882389F1E0919E04F0919F04EC30F10555
:102D100050F5E357F94E0C94B623A716AD16D1160D
:102D2000D316D516D716D916DB16B316B316B316A7
:102D3000DD1680E8DACF80E7D8CF80E6D6CF80E511
:102D4000D4CF80E4D2CF0897ACF280E3C6CF80E145
:102D50008093AE031092AF0306C080E98093AE0368
:102D600080EC8093AF0362EC71E08AEA94E00E9409
:102D7000CA0A882349F1E0919E04F0919F04EB3048
:102D8000F10510F5EA53F94E0C94B6230117031719
:102D90000A170C170E17101712171417E416E4165B
:102DA000DF1680E8DBCF80E7D9CF80E6D7CF80E59C
:102DB000D5CF80E4D3CF80E3CBCF80E2C9CF80E111
:102DC0008093AE031092AF0361EF71E08AEA94E062
:102DD0000E94CA0A882379F1E0919E04F0919F0431
:102DE0003196E930F10538F5E850F94E0C94B623E8
:102DF00016174717491750175217541756175817D1
:102E00005A1780E2DDCF80E98093AE0380EC809397
:102E1000AF03DACF80E8F8CF80E7F6CF80E6F4CFD3
:102E200080E5F2CF80E4F0CF80E3EECF80E18093C5
:102E3000AE031092AF03E0900B05F0900C05B3E6E3
:102E4000EB16F10481F063ED71E08AEA94E00E94F0
:102E5000CA0A811108C062E072E08AEA94E00E9426
:102E6000CA0A882371F1E0919E04F0919F04E93031
:102E7000F10538F5E25CF84E0C94B6235C17521855
:102E800054185B185D185F1861186318651880E2A4
:102E9000CECF80E98093AE0380EC8093AF03CBCF9D
:102EA00080E8F8CF80E7F6CF80E6F4CF80E5F2CF78
:102EB00080E4F0CF80E3EECF80E18093AE03109208
:102EC000AF036EE072E082EC94E00E94CA0A8823AD
:102ED00081F0E1E0EE16F10421F0F4E0EF16F104E8
:102EE00059F480914F05909150058130910509F07A
:102EF000EEC08FE280937B0360E372E088EC94E0A5
:102F00000E94CA0A882309F4F0C021E0E216F10405
:102F100021F034E0E316F10471F480914B059091B7
:102F20004C058130910509F0D7C08EE88093C80325
:102F300081E080937C0380914D0590914E0501972F
:102F400069F46BE472E084ED94E00E94CA0A88237D
:102F500029F080EA8093AD030E946D0A0E946D0AF9
:102F60000E94E5030E946D0A8091DA0461E08111FC
:102F700001C060E080E10E9431038091E60461E0DD
:102F8000811101C060E08FE00E9431038091DB0479
:102F900061E0811101C060E08EE00E9431030E9477
:102FA000210880EA0E94610680E00E946106F82EF6
:102FB0000E947D03B80190E080E0F0FC04C0F1FEC7
:102FC00025C081E090E00E940009892BF9F4F80106
:102FD00080819181A281B381AC01BD015E7F4731C7
:102FE00052406105710529F08F319540A105B10569
:102FF00069F481E08093DB040E94D9036093DC04D0
:103000007093DD048093DE049093DF048091DB04F1
:103010008823A9F00E94D903C090DC04D090DD047D
:10302000E090DE04F090DF046C197D098E099F09A1
:10303000683873418105910510F01092DB0460E659
:1030400072E080EE94E00E94CA0A882369F081E071
:103050008093E6040E94D9036093E7047093E80428
:103060008093E9049093EA048091E0049091E10454
:10307000892B09F4BACB0E94D903C090E704D09001
:10308000E804E090E904F090EA046C197D098E09E7
:103090009F09683873418105910508F4A6CB109209
:1030A000E604A3CB80E209CF80E98093AE0380ECF5
:1030B0008093AF0306CF80E8F8CF80E7F6CF80E6B5
:1030C000F4CF80E5F2CF80E4F0CF80E3EECF892B20
:1030D00009F012CF8FE40ECF892B09F02CCF86E8B0
:1030E0008093C80310927C0326CF8EE88093C80398
:1030F00022CF883309F0C0C00E94DE077C0168EC53
:1031000070E080E090E00E94A7036CE271E080E054
:1031100090E051E0E516F10441F082E0E816F10498
:1031200021F560EB74E080E090E00E944401E6E06D
:10313000EE16F10421F560E478E380E090E00E946F
:1031400044015BE0E516F10421F560E072EC81E0FA
:1031500090E00E94440160E47DE083E090E0E0E1E3
:10316000EE16F10409F444C01EC093E0E916F10420
:1031700019F560E679E080E090E00E944401F7E014
:10318000EF16F10419F560E07BE480E090E00E9426
:1031900044018CE0E816F10419F560E074E883E07E
:1031A00090E00E944401F1E1EF16F10419F560E2AC
:1031B00071EA87E090E01CC0A4E0EA16F10449F54A
:1031C00060EC72E180E090E00E94440128E0E216A9
:1031D000F104F1F560E870E780E090E00E944401BE
:1031E0009DE0E916F104F1F560E970ED83E090E00F
:1031F0000E9444010E94D90380E090E0892B09F4E9
:10320000BDCA0E94B905882309F4B5CA0E9400000E
:10321000B2CAB5E0EB16F10409F089CF60E875E2B7
:1032200080E090E00E9444014AE0E416F10409F0D5
:1032300088CF60E071EE80E090E00E94440160E899
:1032400074E88EE190E0BFE0EB16F10489F283CFE1
:1032500039E0E316F10441F760E076E980E090E0C0
:103260000E94440160E472E48FE090E0AEE0EA1670
:10327000F10409F4BDCFE3CF8A3419F40E941A088F
:10328000B9CF823319F40E941A08B4CF823419F4EA
:103290000E941A08AFCF813411F483E0CECA8E3475
:1032A00049F488E792E00E94950A83E992E00E943F
:1032B000950AC5CA893419F485E992E0F4CF8033C0
:1032C000E9F46AE070E080E090E00E94A70387E9FB
:1032D00092E00E94950A88EB91E00E94950A89E9A4
:1032E00092E00E94950A8BE992E00E94950A8DE98E
:1032F00092E00E94950A8FE992E0D5CF833309F4DA
:1033000079CF863509F476CF833509F473CF8433CA
:1033100019F40E941A086ECF863321F485E10E94C9
:10332000EF0668CF8235D1F38D3409F463CF87344B
:1033300019F40E94DE075ECF95EB980F923008F4E7
:1033400059CF803509F0CBC26BE3CE0148960E947D
:103350006010CE0148960E94251070930C05609372
:103360000B05CE0148960E94C20A6BE3CE01489637
:103370000E946010888D998D009709F4A8C20E9460
:10338000221F60938E0470938F0480939004909317
:103390009104CE0148960E94C20A6BE3CE01489682
:1033A0000E946010CE0148960E94251070939304ED
:1033B00060939204CE0148960E94C20A6BE3CE014C
:1033C00048960E946010888D998D009709F483C2F9
:1033D0000E94221F60939404709395048093960436
:1033E00090939704CE0148960E94C20A6BE3CE01E7
:1033F00048960E946010CE0148960E942510709356
:10340000990460939804CE0148960E94C20A6BE327
:10341000CE0148960E946010CE0148960E94251069
:1034200070939B0460939A04CE0148960E94C20A4E
:103430006BE3CE0148960E946010CE0148960E9430
:10344000251070939D0460939C04CE0148960E94C1
:10345000C20A6BE3CE0148960E946010CE014896E6
:103460000E94251070939F0460939E04CE0148969D
:103470000E94C20A6BE3CE0148960E946010CE0102
:1034800048960E9425107093220560932105CE0175
:1034900048960E94C20A6BE3CE0148960E946010D3
:1034A000CE0148960E942510709324056093230551
:1034B000CE0148960E94C20A6BE3CE0148960E9454
:1034C0006010CE0148960E942510709328056093E5
:1034D0002705CE0148960E94C20A6BE3CE014896AA
:1034E0000E946010CE0148960E94251070932A0514
:1034F00060932905CE0148960E94C20A6BE3CE0173
:1035000048960E946010CE0148960E942510709344
:103510002E0560932D05CE0148960E94C20A6BE3EA
:10352000CE0148960E946010CE0148960E94251058
:1035300070932C0560932B05CE0148960E94C20A19
:103540006BE3CE0148960E946010CE0148960E941F
:1035500025107093320560933105CE0148960E9484
:10356000C20A6BE3CE0148960E946010CE014896D5
:103570000E9425107093340560933305CE01489660
:103580000E94C20A6BE3CE0148960E946010CE01F1
:1035900048960E9425107093360560933505CE013C
:1035A00048960E94C20A6BE3CE0148960E946010C2
:1035B000CE0148960E942510709338056093370518
:1035C000CE0148960E94C20A6BE3CE0148960E9443
:1035D0006010CE0148960E94251070933A056093C2
:1035E0003905CE0148960E94C20A6BE3CE01489687
:1035F0000E946010CE0148960E94251070933C05F1
:1036000060933B05CE0148960E94C20A6BE3CE014F
:1036100048960E946010CE0148960E942510709333
:103620003E0560933D05CE0148960E94C20A6BE3B9
:10363000CE0148960E946010CE0148960E94251047
:103640007093400560933F05CE0148960E94C20AE0
:103650006BE3CE0148960E946010CE0148960E940E
:1036600025107093420560934105CE0148960E9453
:10367000C20A6BE3CE0148960E946010CE014896C4
:103680000E9425107093440560934305CE0148962F
:103690000E94C20A6BE3CE0148960E946010CE01E0
:1036A00048960E94251070934C0560934B05CE01FF
:1036B00048960E94C20A6BE3CE0148960E946010B1
:1036C000CE0148960E94251070934E0560934D05DB
:1036D000CE0148960E94C20A6BE3CE0148960E9432
:1036E0006010CE0148960E9425107093500560939B
:1036F0004F05CE0148960E94C20A6BE3CE01489660
:103700000E946010CE0148960E94251070934605D5
:1037100060934505CE0148960E94C20A6BE3CE0134
:1037200048960E946010CE0148960E942510609332
:10373000A0047093A1048093A2049093A304CE01EB
:1037400048960E94C20A6BE3CE0148960E94601020
:10375000CE0148960E9425107093A5046093A4049E
:10376000CE0148960E94C20A6BE3CE0148960E94A1
:103770006010CE0148960E9425107093A7046093B4
:10378000A604CE0148960E94C20A6BE3CE01489679
:103790000E946010CE0148960E9425107093A904E3
:1037A0006093A804CE0148960E94C20A6BE3CE0142
:1037B00048960E946010BE01685E7F4F8AEA94E0DE
:1037C0000E94EC0FCE0148960E94C20A6BE3CE0124
:1037D00048960E946010BE01685E7F4F86EB94E0C1
:1037E0000E94EC0FCE0148960E94C20A6BE3CE0104
:1037F00048960E946010BE01685E7F4F8CEB94E09B
:103800000E94EC0FCE0148960E94C20A6BE3CE01E3
:1038100048960E946010BE01685E7F4F82EC94E083
:103820000E94EC0FCE0148960E94C20A6BE3CE01C3
:1038300048960E946010BE01685E7F4F88EC94E05D
:103840000E94EC0FCE0148960E94C20A6BE3CE01A3
:1038500048960E946010BE01685E7F4F8EEC94E037
:103860000E94EC0FCE0148960E94C20A6BE3CE0183
:1038700048960E946010BE01685E7F4F80EB94E026
:103880000E94EC0FCE0148960E94C20A6BE3CE0163
:1038900048960E946010BE01685E7F4F80EE94E003
:1038A0000E94EC0FCE0148960E94C20A6AE0CE0147
:1038B00048960E946010BE01685E7F4F84ED94E0E0
:1038C0000E94EC0FCE0148960E94C20A27CD60E00C
:1038D00070E0CB0156CD60E070E0CB017BCD883548
:1038E00009F088CCCE0186960E945F0D0E94DE070B
:1038F00097FD22C080329105F9F08A309105E1F000
:10390000888F198EEAA4FBA42FEFE21AF20AB701FE
:10391000CE0186960E94370D882341F32EA13FA148
:103920008AA59BA5BE01685E7F4F820F931F0E94F0
:10393000B725FBA6EAA6DACF6AED70E0CE0148967D
:103940000E94A510BE01685E7F4FCE0186960E9440
:103950003010F82ECE0148960E94C20AFF20A1F036
:1039600081EA92E00E94BA0F89EA92E00E94BA0FBF
:103970008AE00E94EF0680EF93E00E944106CE01AC
:1039800086960E94C20A36CC62ED70E0CE0148965F
:103990000E94A510BE01685E7F4FCE0186960E94F0
:1039A0003010F82ECE0148960E94C20AFF2041F046
:1039B0008EE10E94EF0685E90E94EF068FE0D9CFE5
:1039C0006DEC70E0CE0148960E94A510BE01685EC5
:1039D0007F4FCE0186960E943010F82ECE01489679
:1039E0000E94C20AF110CBCF66EC70E0CE0148967F
:1039F0000E94A510BE01685E7F4FCE0186960E9490
:103A00003010F82ECE0148960E94C20AF110B7CFAE
:103A100060EC70E0CE0148960E94A510BE01685E81
:103A20007F4FCE0186960E943010F82ECE01489628
:103A30000E94C20AF110A3CF6BEB70E0CE01489652
:103A40000E94A510BE01685E7F4FCE0186960E943F
:103A50003010F82ECE0148960E94C20AF1108FCF86
:103A600066EB70E0CE0148960E94A510BE01685E2C
:103A70007F4FCE0186960E943010F82ECE014896D8
:103A80000E94C20AF1107BCF61EB70E0CE01489634
:103A90000E94A510BE01685E7F4FCE0186960E94EF
:103AA0003010F82ECE0148960E94C20AF11067CF5E
:103AB00063EA70E0CE0148960E94A510CE014896B8
:103AC0000E94C20A5CCF9927F7FC9A958F2D7E2D14
:103AD0006D2D0E94EA2020E030E040E05FE30E948C
:103AE0009D220E947B234B015C01809211059092E4
:103AF0001205A0921305B0921405BA2DA92D982D88
:103B00008827A7019601281B390B4A0B5B0BCA01BA
:103B1000B9010E94EA202B013C0140920D05509210
:103B20000E0560920F057092100520E030E0A901AB
:103B30000E94E32087FF1DC0F1E08F1A9108A108C1
:103B4000B1088092110590921205A0921305B092CF
:103B5000140520E030E040E853E4C301B2010E94C4
:103B60009D2260930D0570930E0580930F05909331
:103B7000100540901105509012056090130570904B
:103B8000140552012FEF4216510461047104C9F06B
:103B9000C4F0992777FC9A95872D762D652D0E9484
:103BA000EA2060931505709316058093170590938E
:103BB00018051092190510921A0510921B05109203
:103BC0001C055092200540921F05B7FE05C0539476
:103BD0005092200540921F054BEFC4164FEFD406BC
:103BE000E104F10414F40C947215C0901505D09002
:103BF0001605E0901705F090180520E030E0A901C7
:103C0000C701B6010E94B12320E030E040E05FE34D
:103C100087FF02C00C947815C701B6010E949D224F
:103C20000E947B2370931E0560931D0580911D05E6
:103C30008093CA0380911F058093CB0360910D058B
:103C400070910E0580910F05909110050E948223BE
:103C50006093CC030E946D0A80910B0590910C0536
:103C6000019711F00C94AE158091A4049091A504D5
:103C7000009711F00C947E15E090A804F090A90430
:103C800067ED71E080EB94E00E94CA0A8823E1F0BE
:103C900080915B0590915C05A0E8B0E0B093580579
:103CA000A093570590935A0580935905835F9140DF
:103CB000E816F9064CF41E141F0434F480EA90E070
:103CC000909358058093570563EB72E080EB94E086
:103CD0000E94CA0A882351F0E0E9F0E0F093580509
:103CE000E0935705F0925A05E0925905C0905B05A4
:103CF000D0905C0535E6C316D10414F00C94B915C8
:103D000010925E0510925D051092600510925F059D
:103D10008091A8049091A904A3EFCA1AA1E0DA0A3D
:103D20008C159D0514F00C94CA151816190614F07C
:103D30000C94CA1581E090E0909352058093510550
:103D4000809157058093680380915F058093690394
:103D500080915D0580936A030E943B020E946D0A78
:103D60000E94DF0A0E946D0A0E943B020E946D0AB7
:103D700068EE71E08AEA94E00E94CA0A81110AC0E2
:103D80006DEE71E08AEA94E00E94CA0A882311F479
:103D90000C94D01581E090E090930C0580930B0576
:103DA0000C9406166F2D772767FD7A95072E000C69
:103DB000880B990B0E94EA2020E030E040E05FE3AE
:103DC0000E949D220E947B237093600560935F0593
:103DD000362F2227E21AF30AF0925E05E0925D0583
:103DE000F7FE96CF615071097093600560935F058F
:103DF000F394F0925E05E0925D058ACF80EE94E048
:103E00000E94C20A84ED94E00E94C20A8EEC94E003
:103E10000E94C20A88EC94E00E94C20A82EC94E0FC
:103E20000E94C20A8CEB94E00E94C20A86EB94E0E6
:103E30000E94C20A80EB94E00E94C20A8AEA94E0DF
:103E40000C94C20A662777270C94721F1F93FC01FB
:103E500099278827BC01E89411911032E9F31930B1
:103E600010F01E30C8F31B3251F01D3249F4689433
:103E700006C00E945D1F610F711D811D911D119172
:103E800010531A30B0F33EF490958095709561957B
:103E90007F4F8F4F9F4F1F910895FB01DC010590CD
:103EA0000D920020E1F70895FC0105900020E9F74C
:103EB000809590958E0F9F1F0895592F482F372F6B
:103EC000262F660F771F881F991F660F771F881F81
:103ED000991F620F731F841F951F660F771F881F1E
:103EE000991F0895B0E0A0E0E8E7FFE10C943A22C2
:103EF0005C017B016115710519F0DB018D939C93C9
:103F000085010F5F1F4FF501D0818D2F90E00E943A
:103F1000C2206C01892BB9F5DD32B9F50F5F1F4F57
:103F2000D5011196DC91C1E05801F1E0AF1AB1085A
:103F300043E050E060E770E0C5010E94CB20892B90
:103F400069F5680182E0C80ED11C45E050E06BE6DF
:103F500070E0C6010E94CB20892B21F4680197E014
:103F6000C90ED11CE114F10419F0D701CD92DC92F5
:103F700060E070E080E89FEFC111FFC060E070E09A
:103F800080E89FE7FAC05801BBCFDB3229F48501F6
:103F90000E5F1F4FF501D181C0E0C6CF43E050E076
:103FA00068E670E0C5010E94CB20892BE9F0F8019A
:103FB00010E000E020E030E0A9015F01B0ED8B2EC1
:103FC0008D0E89E08815C8F19C2E689491F88C2F8D
:103FD0008870C2FF16C0811102C00F5F1F4F31965B
:103FE000D501DC91C92DE9CFE114F10429F00E5F70
:103FF0001F4FF7011183008360E070E080EC9FE7C2
:10400000BCC0882311F001501109A5E0B0E00E9466
:1040100029229B01AC01220F331F441F551F280D7D
:10402000311D411D511D283999E93907490799E189
:104030005907A8F2C6609C2ED2CFAEEF8A1206C0F6
:10404000C3FD3CC09C2E689493F8C9CFDF7DD53466
:10405000A9F580818D3239F4C061DF01129681812A
:1040600062E070E006C0DF018B32C1F3119661E0BF
:1040700070E080535D01A61AB70A8A30F8F4E0E8D0
:10408000CE16ECE0DE065CF4B601660F771F660F15
:10409000771FC60ED71ECC0CDD1CC80ED11C5D01CF
:1040A000FFEFAF1ABF0A8C9180538A30A8F1C4FF8A
:1040B00003C0D194C194D1080C0D1D1DC1FF09C0CE
:1040C000E114F10431F081E0A81AB108D701AD92F2
:1040D000BC92CA01B9010E94E820C370C33009F440
:1040E00090584B015C0120E030E0A9010E94E320E0
:1040F000882309F440C0CFE9D0E017FF05C011952F
:1041000001951109C7E8D0E06E01B8E1CB1AD108DA
:1041100080E2E82EF12C0FC0D501B1CFFE01259130
:104120003591459154910E191F09C501B4010E94A2
:1041300049214B015C01D501C4010E151F0574F71F
:104140002497F594E794CC16DD06A9F78A2F880FFB
:104150008B2F881F8F3F49F020E030E0A901C50177
:10416000B4010E94E320811106C082E290E09093A6
:10417000C1058093C005C501B401CDB7DEB7ECE041
:104180000C94562291110C94B621803219F089506A
:104190008550C8F70895FB01DC014150504088F07C
:1041A0008D9181341CF08B350CF4805E6591613407
:1041B0001CF06B350CF4605E861B611171F3990B7A
:1041C0000895881BFCCF0E94252108F481E0089502
:1041D000E89409C097FB3EF49095809570956195A1
:1041E0007F4F8F4F9F4F9923A9F0F92F96E9BB2757
:1041F0009395F695879577956795B795F111F8CFD3
:10420000FAF4BB0F11F460FF1BC06F5F7F4F8F4F3D
:104210009F4F16C0882311F096E911C0772321F033
:104220009EE8872F762F05C0662371F096E8862FCB
:1042300070E060E02AF09A95660F771F881FDAF722
:10424000880F9695879597F90895990F0008550F4F
:10425000AA0BE0E8FEEF16161706E807F907C0F00C
:1042600012161306E407F50798F0621B730B840B14
:10427000950B39F40A2661F0232B242B252B21F4EE
:1042800008950A2609F4A140A6958FEF811D811D8E
:1042900008950E945C210C94D0210E94C22138F024
:1042A0000E94C92120F0952311F00C94B9210C949F
:1042B000BF2111240C9404220E94E12170F3959FE8
:1042C000C1F3950F50E0551F629FF001729FBB270D
:1042D000F00DB11D639FAA27F00DB11DAA1F649FA9
:1042E0006627B00DA11D661F829F2227B00DA11D5C
:1042F000621F739FB00DA11D621F839FA00D611DE2
:10430000221F749F3327A00D611D231F849F600D02
:10431000211D822F762F6A2F11249F5750409AF02B
:10432000F1F088234AF0EE0FFF1FBB1F661F771FB7
:10433000881F91505040A9F79E3F510580F00C9482
:10434000B9210C9404225F3FE4F3983ED4F38695A0
:1043500077956795B795F795E7959F5FC1F7FE2B22
:10436000880F911D9695879597F908959927882725
:10437000089597F99F6780E870E060E008959FEFE7
:1043800080EC089500240A941616170618060906EC
:10439000089500240A9412161306140605060895BB
:1043A000092E0394000C11F4882352F0BB0F40F443
:1043B000BF2B11F460FF04C06F5F7F4F8F4F9F4F83
:1043C000089557FD9058440F551F59F05F3F71F005
:1043D0004795880F97FB991F61F09F3F79F087956C
:1043E0000895121613061406551FF2CF4695F1DFF5
:1043F00008C0161617061806991FF1CF8695710585
:10440000610508940895E894BB2766277727CB01B8
:1044100097F90895052E97FB1EF400940E9421221F
:1044200057FD07D00E946B2207FC03D04EF40C947A
:10443000212250954095309521953F4F4F4F5F4F2A
:10444000089590958095709561957F4F8F4F9F4F00
:1044500008950E948D22A59F900DB49F900DA49F5A
:10446000800D911D112408952F923F924F925F92DB
:104470006F927F928F929F92AF92BF92CF92DF9274
:10448000EF92FF920F931F93CF93DF93CDB7DEB7D9
:10449000CA1BDB0B0FB6F894DEBF0FBECDBF09946D
:1044A0002A88398848885F846E847D848C849B84C4
:1044B000AA84B984C884DF80EE80FD800C811B81D2
:1044C000AA81B981CE0FD11D0FB6F894DEBF0FBE01
:1044D000CDBFED010895A1E21A2EAA1BBB1BFD0161
:1044E0000DC0AA1FBB1FEE1FFF1FA217B307E407D3
:1044F000F50720F0A21BB30BE40BF50B661F771F2B
:10450000881F991F1A9469F760957095809590950A
:104510009B01AC01BD01CF010895A29FB001B39FE3
:10452000C001A39F700D811D1124911DB29F700DBC
:10453000811D1124911D08955058BB27AA270E9460
:10454000B4220C94D0210E94C22138F00E94C921CB
:1045500020F039F49F3F19F426F40C94BF210EF497
:10456000E095E7FB0C94B921E92F0E94E12158F373
:10457000BA17620773078407950720F079F4A6F548
:104580000C9403220EF4E0950B2EBA2FA02D0B01F4
:10459000B90190010C01CA01A0011124FF27591B88
:1045A00099F0593F50F4503E68F11A16F040A22F8E
:1045B000232F342F4427585FF3CF469537952795FF
:1045C000A795F0405395C9F77EF41F16BA0B620BFE
:1045D000730B840BBAF09150A1F0FF0FBB1F661F45
:1045E000771F881FC2F70EC0BA0F621F731F841F88
:1045F00048F4879577956795B795F7959E3F08F0AE
:10460000B0CF9395880F08F09927EE0F979587956F
:1046100008950E941D230C94D0210E94C92158F0B6
:104620000E94C22140F029F45F3F29F00C94B92187
:1046300051110C9404220C94BF210E94E12168F3D3
:104640009923B1F3552391F3951B550BBB27AA274B
:1046500062177307840738F09F5F5F4F220F331F85
:10466000441FAA1FA9F335D00E2E3AF0E0E832D04D
:1046700091505040E695001CCAF72BD0FE2F29D050
:10468000660F771F881FBB1F261737074807AB0722
:10469000B0E809F0BB0B802DBF01FF2793585F4F97
:1046A0003AF09E3F510578F00C94B9210C94042205
:1046B0005F3FE4F3983ED4F3869577956795B79579
:1046C000F7959F5FC9F7880F911D9695879597F984
:1046D0000895E1E0660F771F881FBB1F62177307FD
:1046E0008407BA0720F0621B730B840BBA0BEE1F12
:1046F00088F7E09508950E9482236894B1110C9484
:10470000042208950E94E92188F09F5798F0B92F5C
:104710009927B751B0F0E1F0660F771F881F991FF6
:104720001AF0BA95C9F714C0B13091F00E94032273
:10473000B1E008950C940322672F782F8827B85F83
:1047400039F0B93FCCF3869577956795B395D9F74E
:104750003EF490958095709561957F4F8F4F9F4F58
:1047600008950E94252108F48FEF0895EE0FFF1F92
:104770000590F491E02D09940E948D22B7FF0895D1
:10478000821B930B08950F931F93CF93DF93823077
:10479000910510F482E090E0E091C405F091C50528
:1047A00030E020E0B0E0A0E0309799F42115310529
:1047B00009F44AC0281B390B24303105D8F58A8109
:1047C0009B816115710589F1FB0193838283FE0151
:1047D00011C0408151810281138148175907E0F0CF
:1047E0004817590799F4109761F012960C93129795
:1047F00013961C933296CF01DF91CF911F910F91A9
:1048000008950093C4051093C505F4CF2115310513
:1048100051F04217530738F0A901DB019A01BD019D
:10482000DF01F801C1CFEF01F9CF9093C505809367
:10483000C405CDCFFE01E20FF31F81939193225067
:10484000310939832883D7CF2091C2053091C30520
:10485000232B41F420910201309103013093C305D1
:104860002093C205209100013091010121153105ED
:1048700041F42DB73EB74091040150910501241B2E
:10488000350BE091C205F091C305E217F307A0F4E0
:104890002E1B3F0B2817390778F0AC014E5F5F4F96
:1048A0002417350748F04E0F5F1F5093C305409300
:1048B000C205819391939FCFF0E0E0E09CCFCF932E
:1048C000DF930097E9F0FC01329713821282A091E6
:1048D000C405B091C505ED0130E020E01097A1F4CA
:1048E00020813181820F931F2091C2053091C30531
:1048F0002817390709F061C0F093C305E093C2059A
:10490000DF91CF910895EA01CE17DF07E8F54A81DC
:104910005B819E0141155105B1F7E901FB83EA83F3
:1049200049915991C40FD51FEC17FD0761F480819F
:1049300091810296840F951FE90199838883828172
:1049400093819B838A83F0E0E0E012968D919C91A5
:1049500013970097B9F52D913C911197CD010296CF
:10496000820F931F2091C2053091C3052817390784
:1049700039F6309751F51092C5051092C405B093E1
:10498000C305A093C205BCCFD383C28340815181AC
:10499000840F951FC817D90761F44E5F5F4F888158
:1049A0009981480F591F518340838A819B8193834A
:1049B00082832115310509F0B0CFF093C505E0934E
:1049C000C4059ECFFD01DC01C0CF13821282D7CF78
:1049D000B0E0A0E0EEEEF4E20C9436228C010097F9
:1049E00051F4CB010E94C3238C01C801CDB7DEB7BF
:1049F000E0E10C945222FC01E60FF71F9C012250CB
:104A00003109E217F30708F49DC0D901CD91DC917B
:104A10001197C617D70798F0C530D10530F3CE01EE
:104A200004978617970708F3C61BD70B2297C193E5
:104A3000D1936D937C93CF010E945F24D6CF5B010D
:104A4000AC1ABD0A4C018C0E9D1EA091C405B091FC
:104A5000C505512C412CF12CE12C109731F580919A
:104A6000C2059091C3058815990509F05CC04616EA
:104A7000570608F058C080910001909101010097FD
:104A800041F48DB79EB74091040150910501841BFC
:104A9000950BE817F90708F055C0F093C305E093AC
:104AA000C205F90171836083A0CF8D919C9111970C
:104AB00012966C90129713967C901397A815B905CF
:104AC00059F56C0142E0C40ED11CCA14DB0420F17C
:104AD000AC014A195B09DA011296159780F06282DF
:104AE000738251834083D9016D937C93E114F10467
:104AF00071F0D7011396FC93EE93129776CF22961E
:104B00008C0F9D1FF90191838083F301EFCFF09308
:104B1000C505E093C40569CF4816590608F42C0171
:104B20007D01D3019ACFCB010E94C3237C01009762
:104B300049F0AE01B8010E94A525C8010E945F247A
:104B4000870153CF10E000E050CFFB01DC0102C031
:104B500001900D9241505040D8F70895FB01DC01BF
:104B60008D91019080190110D9F3990B0895FB01E3
:104B7000DC0101900D920020E1F7089511E0C9E1F8
:104B8000D1E004C0FE010E94B6232196CA31D107AC
:064B9000C9F7F894FFCF05
:104B96000000C605800000000100020000000100C0
:104BA6000200030004000500606166017071760270
:104BB60030313640414650515600000000EF054F57
:104BC600057C054106AD058B059F054449455345C2
:104BD6004C00557A7977616A2070656C6E656A203B
:104BE600736B616C69206F62726F746F6D69657249
:104BF6007A613A204F4E00557A7977616A2070655E
:104C06006C6E656A20736B616C69206F62726F747B
:104C16006F6D6965727A613A204F46460042454E8D
:104C26005A594E4100577973776965746C616A20E9
:104C3600707265646B6F7363206E6120736B616C59
:104C460069204D50483A204F4E00464835004648A8
:104C56003400436F64656D6173746572734772697E
:104C66006432004C4653005370656564206C696D70
:104C760069743A204F464600455453320041545316
:104C860000436F64656D6173746572734469727411
:104C960034004265616D4E674472697665005374EF
:104CA600616C6520706F6473776965746C656E6995
:104CB60065206C69637A6E696B613A204F464600DF
:104CC6005374616C79207A61706C6F6E206C6963C5
:104CD6007A6E696B613A204F46460043726561748D
:104CE6006564206279204D61747465636850430081
:104CF60053696D4855425F636F6D6D756E6963618B
:104D060074696F6E5F4F4B004D61747465636850D4
:104D1600432050657567656F7420343037205632EE
:104D26002E30000A003100470049004A0050005862
:104D3600006D637574797065006B656570616C698B
:104D46007665005370656564206C696D69743A20F8
:044D56004F4E0000BC
:00000001FF
